{
  "_format": "hh-sol-artifact-1",
  "contractName": "Domains",
  "sourceName": "contracts/Domains.sol",
  "abi": [
    {
      "inputs": [
        {
          "internalType": "string",
          "name": "_tld",
          "type": "string"
        }
      ],
      "stateMutability": "payable",
      "type": "constructor"
    },
    {
      "inputs": [],
      "name": "AlreadyRegistered",
      "type": "error"
    },
    {
      "inputs": [
        {
          "internalType": "string",
          "name": "name",
          "type": "string"
        }
      ],
      "name": "InvalidName",
      "type": "error"
    },
    {
      "inputs": [],
      "name": "Unauthorized",
      "type": "error"
    },
    {
      "anonymous": false,
      "inputs": [
        {
          "indexed": true,
          "internalType": "address",
          "name": "owner",
          "type": "address"
        },
        {
          "indexed": true,
          "internalType": "address",
          "name": "approved",
          "type": "address"
        },
        {
          "indexed": true,
          "internalType": "uint256",
          "name": "tokenId",
          "type": "uint256"
        }
      ],
      "name": "Approval",
      "type": "event"
    },
    {
      "anonymous": false,
      "inputs": [
        {
          "indexed": true,
          "internalType": "address",
          "name": "owner",
          "type": "address"
        },
        {
          "indexed": true,
          "internalType": "address",
          "name": "operator",
          "type": "address"
        },
        {
          "indexed": false,
          "internalType": "bool",
          "name": "approved",
          "type": "bool"
        }
      ],
      "name": "ApprovalForAll",
      "type": "event"
    },
    {
      "anonymous": false,
      "inputs": [
        {
          "indexed": true,
          "internalType": "address",
          "name": "from",
          "type": "address"
        },
        {
          "indexed": true,
          "internalType": "address",
          "name": "to",
          "type": "address"
        },
        {
          "indexed": true,
          "internalType": "uint256",
          "name": "tokenId",
          "type": "uint256"
        }
      ],
      "name": "Transfer",
      "type": "event"
    },
    {
      "inputs": [
        {
          "internalType": "address",
          "name": "to",
          "type": "address"
        },
        {
          "internalType": "uint256",
          "name": "tokenId",
          "type": "uint256"
        }
      ],
      "name": "approve",
      "outputs": [],
      "stateMutability": "nonpayable",
      "type": "function"
    },
    {
      "inputs": [
        {
          "internalType": "address",
          "name": "owner",
          "type": "address"
        }
      ],
      "name": "balanceOf",
      "outputs": [
        {
          "internalType": "uint256",
          "name": "",
          "type": "uint256"
        }
      ],
      "stateMutability": "view",
      "type": "function"
    },
    {
      "inputs": [
        {
          "internalType": "string",
          "name": "",
          "type": "string"
        }
      ],
      "name": "domains",
      "outputs": [
        {
          "internalType": "address",
          "name": "",
          "type": "address"
        }
      ],
      "stateMutability": "view",
      "type": "function"
    },
    {
      "inputs": [
        {
          "internalType": "string",
          "name": "name",
          "type": "string"
        }
      ],
      "name": "getAddress",
      "outputs": [
        {
          "internalType": "address",
          "name": "",
          "type": "address"
        }
      ],
      "stateMutability": "view",
      "type": "function"
    },
    {
      "inputs": [],
      "name": "getAllNames",
      "outputs": [
        {
          "internalType": "string[]",
          "name": "",
          "type": "string[]"
        }
      ],
      "stateMutability": "view",
      "type": "function"
    },
    {
      "inputs": [
        {
          "internalType": "uint256",
          "name": "tokenId",
          "type": "uint256"
        }
      ],
      "name": "getApproved",
      "outputs": [
        {
          "internalType": "address",
          "name": "",
          "type": "address"
        }
      ],
      "stateMutability": "view",
      "type": "function"
    },
    {
      "inputs": [
        {
          "internalType": "string",
          "name": "name",
          "type": "string"
        }
      ],
      "name": "getRecord",
      "outputs": [
        {
          "internalType": "string",
          "name": "",
          "type": "string"
        }
      ],
      "stateMutability": "view",
      "type": "function"
    },
    {
      "inputs": [
        {
          "internalType": "address",
          "name": "owner",
          "type": "address"
        },
        {
          "internalType": "address",
          "name": "operator",
          "type": "address"
        }
      ],
      "name": "isApprovedForAll",
      "outputs": [
        {
          "internalType": "bool",
          "name": "",
          "type": "bool"
        }
      ],
      "stateMutability": "view",
      "type": "function"
    },
    {
      "inputs": [],
      "name": "isOwner",
      "outputs": [
        {
          "internalType": "bool",
          "name": "",
          "type": "bool"
        }
      ],
      "stateMutability": "view",
      "type": "function"
    },
    {
      "inputs": [],
      "name": "name",
      "outputs": [
        {
          "internalType": "string",
          "name": "",
          "type": "string"
        }
      ],
      "stateMutability": "view",
      "type": "function"
    },
    {
      "inputs": [
        {
          "internalType": "uint256",
          "name": "",
          "type": "uint256"
        }
      ],
      "name": "names",
      "outputs": [
        {
          "internalType": "string",
          "name": "",
          "type": "string"
        }
      ],
      "stateMutability": "view",
      "type": "function"
    },
    {
      "inputs": [],
      "name": "owner",
      "outputs": [
        {
          "internalType": "address payable",
          "name": "",
          "type": "address"
        }
      ],
      "stateMutability": "view",
      "type": "function"
    },
    {
      "inputs": [
        {
          "internalType": "uint256",
          "name": "tokenId",
          "type": "uint256"
        }
      ],
      "name": "ownerOf",
      "outputs": [
        {
          "internalType": "address",
          "name": "",
          "type": "address"
        }
      ],
      "stateMutability": "view",
      "type": "function"
    },
    {
      "inputs": [
        {
          "internalType": "string",
          "name": "name",
          "type": "string"
        }
      ],
      "name": "price",
      "outputs": [
        {
          "internalType": "uint256",
          "name": "",
          "type": "uint256"
        }
      ],
      "stateMutability": "pure",
      "type": "function"
    },
    {
      "inputs": [
        {
          "internalType": "string",
          "name": "",
          "type": "string"
        }
      ],
      "name": "records",
      "outputs": [
        {
          "internalType": "string",
          "name": "",
          "type": "string"
        }
      ],
      "stateMutability": "view",
      "type": "function"
    },
    {
      "inputs": [
        {
          "internalType": "string",
          "name": "name",
          "type": "string"
        }
      ],
      "name": "register",
      "outputs": [],
      "stateMutability": "payable",
      "type": "function"
    },
    {
      "inputs": [
        {
          "internalType": "address",
          "name": "from",
          "type": "address"
        },
        {
          "internalType": "address",
          "name": "to",
          "type": "address"
        },
        {
          "internalType": "uint256",
          "name": "tokenId",
          "type": "uint256"
        }
      ],
      "name": "safeTransferFrom",
      "outputs": [],
      "stateMutability": "nonpayable",
      "type": "function"
    },
    {
      "inputs": [
        {
          "internalType": "address",
          "name": "from",
          "type": "address"
        },
        {
          "internalType": "address",
          "name": "to",
          "type": "address"
        },
        {
          "internalType": "uint256",
          "name": "tokenId",
          "type": "uint256"
        },
        {
          "internalType": "bytes",
          "name": "_data",
          "type": "bytes"
        }
      ],
      "name": "safeTransferFrom",
      "outputs": [],
      "stateMutability": "nonpayable",
      "type": "function"
    },
    {
      "inputs": [
        {
          "internalType": "address",
          "name": "operator",
          "type": "address"
        },
        {
          "internalType": "bool",
          "name": "approved",
          "type": "bool"
        }
      ],
      "name": "setApprovalForAll",
      "outputs": [],
      "stateMutability": "nonpayable",
      "type": "function"
    },
    {
      "inputs": [
        {
          "internalType": "string",
          "name": "name",
          "type": "string"
        },
        {
          "internalType": "string",
          "name": "record",
          "type": "string"
        }
      ],
      "name": "setRecord",
      "outputs": [],
      "stateMutability": "nonpayable",
      "type": "function"
    },
    {
      "inputs": [
        {
          "internalType": "bytes4",
          "name": "interfaceId",
          "type": "bytes4"
        }
      ],
      "name": "supportsInterface",
      "outputs": [
        {
          "internalType": "bool",
          "name": "",
          "type": "bool"
        }
      ],
      "stateMutability": "view",
      "type": "function"
    },
    {
      "inputs": [],
      "name": "symbol",
      "outputs": [
        {
          "internalType": "string",
          "name": "",
          "type": "string"
        }
      ],
      "stateMutability": "view",
      "type": "function"
    },
    {
      "inputs": [],
      "name": "tld",
      "outputs": [
        {
          "internalType": "string",
          "name": "",
          "type": "string"
        }
      ],
      "stateMutability": "view",
      "type": "function"
    },
    {
      "inputs": [
        {
          "internalType": "uint256",
          "name": "tokenId",
          "type": "uint256"
        }
      ],
      "name": "tokenURI",
      "outputs": [
        {
          "internalType": "string",
          "name": "",
          "type": "string"
        }
      ],
      "stateMutability": "view",
      "type": "function"
    },
    {
      "inputs": [
        {
          "internalType": "address",
          "name": "from",
          "type": "address"
        },
        {
          "internalType": "address",
          "name": "to",
          "type": "address"
        },
        {
          "internalType": "uint256",
          "name": "tokenId",
          "type": "uint256"
        }
      ],
      "name": "transferFrom",
      "outputs": [],
      "stateMutability": "nonpayable",
      "type": "function"
    },
    {
      "inputs": [],
      "name": "withdraw",
      "outputs": [],
      "stateMutability": "nonpayable",
      "type": "function"
    }
  ],
  "bytecode": "0x6080604052604051806107a0016040528061076d81526020016200542c61076d9139600a908051906020019062000038929190620002c8565b506040518060400160405280600d81526020017f3c2f746578743e3c2f7376673e00000000000000000000000000000000000000815250600b908051906020019062000086929190620002c8565b5060405162005b9938038062005b998339818101604052810190620000ac9190620003ea565b6040518060400160405280601381526020017f556e69746564204e616d652053657276696365000000000000000000000000008152506040518060400160405280600381526020017f554e530000000000000000000000000000000000000000000000000000000000815250816000908051906020019062000130929190620002c8565b50806001908051906020019062000149929190620002c8565b50505033600760006101000a81548173ffffffffffffffffffffffffffffffffffffffff021916908373ffffffffffffffffffffffffffffffffffffffff1602179055508060099080519060200190620001a5929190620002c8565b50620001f26040518060400160405280602081526020017f2573206e616d652073657276696365206465706c6f7965642e20436f6e676f2181525082620001f960201b62001bdb1760201c565b5062000637565b6200029b82826040516024016200021292919062000470565b6040516020818303038152906040527f4b5c4277000000000000000000000000000000000000000000000000000000007bffffffffffffffffffffffffffffffffffffffffffffffffffffffff19166020820180517bffffffffffffffffffffffffffffffffffffffffffffffffffffffff83818316178352505050506200029f60201b60201c565b5050565b60008151905060006a636f6e736f6c652e6c6f679050602083016000808483855afa5050505050565b828054620002d6906200055c565b90600052602060002090601f016020900481019282620002fa576000855562000346565b82601f106200031557805160ff191683800117855562000346565b8280016001018555821562000346579182015b828111156200034557825182559160200191906001019062000328565b5b50905062000355919062000359565b5090565b5b80821115620003745760008160009055506001016200035a565b5090565b60006200038f6200038984620004d4565b620004ab565b905082815260208101848484011115620003a857600080fd5b620003b584828562000526565b509392505050565b600082601f830112620003cf57600080fd5b8151620003e184826020860162000378565b91505092915050565b600060208284031215620003fd57600080fd5b600082015167ffffffffffffffff8111156200041857600080fd5b6200042684828501620003bd565b91505092915050565b60006200043c826200050a565b62000448818562000515565b93506200045a81856020860162000526565b620004658162000626565b840191505092915050565b600060408201905081810360008301526200048c81856200042f565b90508181036020830152620004a281846200042f565b90509392505050565b6000620004b7620004ca565b9050620004c5828262000592565b919050565b6000604051905090565b600067ffffffffffffffff821115620004f257620004f1620005f7565b5b620004fd8262000626565b9050602081019050919050565b600081519050919050565b600082825260208201905092915050565b60005b838110156200054657808201518184015260208101905062000529565b8381111562000556576000848401525b50505050565b600060028204905060018216806200057557607f821691505b602082108114156200058c576200058b620005c8565b5b50919050565b6200059d8262000626565b810181811067ffffffffffffffff82111715620005bf57620005be620005f7565b5b80604052505050565b7f4e487b7100000000000000000000000000000000000000000000000000000000600052602260045260246000fd5b7f4e487b7100000000000000000000000000000000000000000000000000000000600052604160045260246000fd5b6000601f19601f8301169050919050565b614de580620006476000396000f3fe6080604052600436106101815760003560e01c806370a08231116100d1578063bf40fac11161008a578063e985e9c511610064578063e985e9c5146105cc578063f2c298be14610609578063fb825e5f14610625578063fe2c61981461065057610181565b8063bf40fac114610529578063c1880a9814610566578063c87b56dd1461058f57610181565b806370a08231146104195780638da5cb5b146104565780638f32d59b1461048157806395d89b41146104ac578063a22cb465146104d7578063b88d4fde1461050057610181565b8063264492351161013e57806342842e0e1161011857806342842e0e146103395780634622ab0314610362578063541e771d1461039f5780636352211e146103dc57610181565b806326449235146102ba5780632d551432146102f75780633ccfd60b1461032257610181565b806301ffc9a71461018657806306fdde03146101c3578063081812fc146101ee578063095ea7b31461022b57806311dd88451461025457806323b872dd14610291575b600080fd5b34801561019257600080fd5b506101ad60048036038101906101a891906134c7565b61068d565b6040516101ba9190613dc4565b60405180910390f35b3480156101cf57600080fd5b506101d861076f565b6040516101e59190613ddf565b60405180910390f35b3480156101fa57600080fd5b5061021560048036038101906102109190613614565b610801565b6040516102229190613d20565b60405180910390f35b34801561023757600080fd5b50610252600480360381019061024d919061348b565b610886565b005b34801561026057600080fd5b5061027b60048036038101906102769190613519565b61099e565b6040516102889190613ddf565b60405180910390f35b34801561029d57600080fd5b506102b860048036038101906102b39190613385565b610a51565b005b3480156102c657600080fd5b506102e160048036038101906102dc91906135d3565b610ab1565b6040516102ee9190613d20565b60405180910390f35b34801561030357600080fd5b5061030c610afa565b6040516103199190613ddf565b60405180910390f35b34801561032e57600080fd5b50610337610b88565b005b34801561034557600080fd5b50610360600480360381019061035b9190613385565b610c4e565b005b34801561036e57600080fd5b5061038960048036038101906103849190613614565b610c6e565b6040516103969190613ddf565b60405180910390f35b3480156103ab57600080fd5b506103c660048036038101906103c191906135d3565b610d0e565b6040516103d39190613ddf565b60405180910390f35b3480156103e857600080fd5b5061040360048036038101906103fe9190613614565b610dc4565b6040516104109190613d20565b60405180910390f35b34801561042557600080fd5b50610440600480360381019061043b9190613320565b610e76565b60405161044d9190614171565b60405180910390f35b34801561046257600080fd5b5061046b610f2e565b6040516104789190613d3b565b60405180910390f35b34801561048d57600080fd5b50610496610f54565b6040516104a39190613dc4565b60405180910390f35b3480156104b857600080fd5b506104c1610fac565b6040516104ce9190613ddf565b60405180910390f35b3480156104e357600080fd5b506104fe60048036038101906104f9919061344f565b61103e565b005b34801561050c57600080fd5b50610527600480360381019061052291906133d4565b611054565b005b34801561053557600080fd5b50610550600480360381019061054b9190613519565b6110b6565b60405161055d9190613d20565b60405180910390f35b34801561057257600080fd5b5061058d6004803603810190610588919061355e565b611101565b005b34801561059b57600080fd5b506105b660048036038101906105b19190613614565b6111dc565b6040516105c39190613ddf565b60405180910390f35b3480156105d857600080fd5b506105f360048036038101906105ee9190613349565b61132e565b6040516106009190613dc4565b60405180910390f35b610623600480360381019061061e9190613519565b6113c2565b005b34801561063157600080fd5b5061063a6118e5565b6040516106479190613da2565b60405180910390f35b34801561065c57600080fd5b5061067760048036038101906106729190613519565b611b35565b6040516106849190614171565b60405180910390f35b60007f80ac58cd000000000000000000000000000000000000000000000000000000007bffffffffffffffffffffffffffffffffffffffffffffffffffffffff1916827bffffffffffffffffffffffffffffffffffffffffffffffffffffffff1916148061075857507f5b5e139f000000000000000000000000000000000000000000000000000000007bffffffffffffffffffffffffffffffffffffffffffffffffffffffff1916827bffffffffffffffffffffffffffffffffffffffffffffffffffffffff1916145b80610768575061076782611c77565b5b9050919050565b60606000805461077e9061449d565b80601f01602080910402602001604051908101604052809291908181526020018280546107aa9061449d565b80156107f75780601f106107cc576101008083540402835291602001916107f7565b820191906000526020600020905b8154815290600101906020018083116107da57829003601f168201915b5050505050905090565b600061080c82611ce1565b61084b576040517f08c379a0000000000000000000000000000000000000000000000000000000008152600401610842906140f1565b60405180910390fd5b6004600083815260200190815260200160002060009054906101000a900473ffffffffffffffffffffffffffffffffffffffff169050919050565b600061089182610dc4565b90508073ffffffffffffffffffffffffffffffffffffffff168373ffffffffffffffffffffffffffffffffffffffff161415610902576040517f08c379a00000000000000000000000000000000000000000000000000000000081526004016108f990614131565b60405180910390fd5b8073ffffffffffffffffffffffffffffffffffffffff16610921611d4d565b73ffffffffffffffffffffffffffffffffffffffff161480610950575061094f8161094a611d4d565b61132e565b5b61098f576040517f08c379a000000000000000000000000000000000000000000000000000000000815260040161098690614031565b60405180910390fd5b6109998383611d55565b505050565b6060600d83836040516109b2929190613bed565b908152602001604051809103902080546109cb9061449d565b80601f01602080910402602001604051908101604052809291908181526020018280546109f79061449d565b8015610a445780601f10610a1957610100808354040283529160200191610a44565b820191906000526020600020905b815481529060010190602001808311610a2757829003601f168201915b5050505050905092915050565b610a62610a5c611d4d565b82611e0e565b610aa1576040517f08c379a0000000000000000000000000000000000000000000000000000000008152600401610a9890614151565b60405180910390fd5b610aac838383611eec565b505050565b600c818051602081018201805184825260208301602085012081835280955050505050506000915054906101000a900473ffffffffffffffffffffffffffffffffffffffff1681565b60098054610b079061449d565b80601f0160208091040260200160405190810160405280929190818152602001828054610b339061449d565b8015610b805780601f10610b5557610100808354040283529160200191610b80565b820191906000526020600020905b815481529060010190602001808311610b6357829003601f168201915b505050505081565b610b90610f54565b610b9957600080fd5b600047905060003373ffffffffffffffffffffffffffffffffffffffff1682604051610bc490613d0b565b60006040518083038185875af1925050503d8060008114610c01576040519150601f19603f3d011682016040523d82523d6000602084013e610c06565b606091505b5050905080610c4a576040517f08c379a0000000000000000000000000000000000000000000000000000000008152600401610c4190613fd1565b60405180910390fd5b5050565b610c6983838360405180602001604052806000815250611054565b505050565b600e6020528060005260406000206000915090508054610c8d9061449d565b80601f0160208091040260200160405190810160405280929190818152602001828054610cb99061449d565b8015610d065780601f10610cdb57610100808354040283529160200191610d06565b820191906000526020600020905b815481529060010190602001808311610ce957829003601f168201915b505050505081565b600d818051602081018201805184825260208301602085012081835280955050505050506000915090508054610d439061449d565b80601f0160208091040260200160405190810160405280929190818152602001828054610d6f9061449d565b8015610dbc5780601f10610d9157610100808354040283529160200191610dbc565b820191906000526020600020905b815481529060010190602001808311610d9f57829003601f168201915b505050505081565b6000806002600084815260200190815260200160002060009054906101000a900473ffffffffffffffffffffffffffffffffffffffff169050600073ffffffffffffffffffffffffffffffffffffffff168173ffffffffffffffffffffffffffffffffffffffff161415610e6d576040517f08c379a0000000000000000000000000000000000000000000000000000000008152600401610e6490614071565b60405180910390fd5b80915050919050565b60008073ffffffffffffffffffffffffffffffffffffffff168273ffffffffffffffffffffffffffffffffffffffff161415610ee7576040517f08c379a0000000000000000000000000000000000000000000000000000000008152600401610ede90614051565b60405180910390fd5b600360008373ffffffffffffffffffffffffffffffffffffffff1673ffffffffffffffffffffffffffffffffffffffff168152602001908152602001600020549050919050565b600760009054906101000a900473ffffffffffffffffffffffffffffffffffffffff1681565b6000600760009054906101000a900473ffffffffffffffffffffffffffffffffffffffff1673ffffffffffffffffffffffffffffffffffffffff163373ffffffffffffffffffffffffffffffffffffffff1614905090565b606060018054610fbb9061449d565b80601f0160208091040260200160405190810160405280929190818152602001828054610fe79061449d565b80156110345780601f1061100957610100808354040283529160200191611034565b820191906000526020600020905b81548152906001019060200180831161101757829003601f168201915b5050505050905090565b611050611049611d4d565b8383612153565b5050565b61106561105f611d4d565b83611e0e565b6110a4576040517f08c379a000000000000000000000000000000000000000000000000000000000815260040161109b90614151565b60405180910390fd5b6110b0848484846122c0565b50505050565b6000600c83836040516110ca929190613bed565b908152602001604051809103902060009054906101000a900473ffffffffffffffffffffffffffffffffffffffff16905092915050565b600c8484604051611113929190613bed565b908152602001604051809103902060009054906101000a900473ffffffffffffffffffffffffffffffffffffffff1673ffffffffffffffffffffffffffffffffffffffff163373ffffffffffffffffffffffffffffffffffffffff16146111a6576040517f82b4290000000000000000000000000000000000000000000000000000000000815260040160405180910390fd5b8181600d86866040516111ba929190613bed565b908152602001604051809103902091906111d5929190613074565b5050505050565b60606111e782611ce1565b611226576040517f08c379a000000000000000000000000000000000000000000000000000000000815260040161121d906140d1565b60405180910390fd5b60006006600084815260200190815260200160002080546112469061449d565b80601f01602080910402602001604051908101604052809291908181526020018280546112729061449d565b80156112bf5780601f10611294576101008083540402835291602001916112bf565b820191906000526020600020905b8154815290600101906020018083116112a257829003601f168201915b5050505050905060006112d061231c565b90506000815114156112e6578192505050611329565b60008251111561131b578082604051602001611303929190613c37565b60405160208183030381529060405292505050611329565b61132484612333565b925050505b919050565b6000600560008473ffffffffffffffffffffffffffffffffffffffff1673ffffffffffffffffffffffffffffffffffffffff16815260200190815260200160002060008373ffffffffffffffffffffffffffffffffffffffff1673ffffffffffffffffffffffffffffffffffffffff16815260200190815260200160002060009054906101000a900460ff16905092915050565b600073ffffffffffffffffffffffffffffffffffffffff16600c83836040516113ec929190613bed565b908152602001604051809103902060009054906101000a900473ffffffffffffffffffffffffffffffffffffffff1673ffffffffffffffffffffffffffffffffffffffff1614611468576040517f3a81d6fc00000000000000000000000000000000000000000000000000000000815260040160405180910390fd5b60006114748383611b35565b9050803410156114b9576040517f08c379a00000000000000000000000000000000000000000000000000000000081526004016114b090614011565b60405180910390fd5b6000838360096040516020016114d193929190613c06565b60405160208183030381529060405290506000600a82600b6040516020016114fb93929190613c5b565b6040516020818303038152906040529050600061151860086123da565b9050600061156987878080601f016020809104026020016040519081016040528093929190818152602001838380828437600081840152601f19601f820116905080830192505050505050506123e8565b90506000611576826125c3565b905061166a604051806060016040528060218152602001614d8f6021913989898080601f016020809104026020016040519081016040528093929190818152602001838380828437600081840152601f19601f82011690508083019250505050505050600980546115e69061449d565b80601f01602080910402602001604051908101604052809291908181526020018280546116129061449d565b801561165f5780601f106116345761010080835404028352916020019161165f565b820191906000526020600020905b81548152906001019060200180831161164257829003601f168201915b505050505086612770565b60006116a08661167987612812565b8460405160200161168c93929190613c8c565b604051602081830303815290604052612812565b90506000816040516020016116b59190613ce9565b60405160208183030381529060405290506116e7604051806060016040528060398152602001614cdd603991396129d0565b6117266040518060400160405280600e81526020017f46696e616c20746f6b656e55524900000000000000000000000000000000000081525082611bdb565b611747604051806060016040528060398152602001614d16603991396129d0565b6117513386612a69565b61175b8582612a87565b33600c8b8b60405161176e929190613bed565b908152602001604051809103902060006101000a81548173ffffffffffffffffffffffffffffffffffffffff021916908373ffffffffffffffffffffffffffffffffffffffff1602179055508989600e600088815260200190815260200160002091906117dc929190613074565b506117e76008612afb565b6118d9604051806060016040528060248152602001614cb960249139338c8c8080601f016020809104026020016040519081016040528093929190818152602001838380828437600081840152601f19601f82011690508083019250505050505050600980546118569061449d565b80601f01602080910402602001604051908101604052809291908181526020018280546118829061449d565b80156118cf5780601f106118a4576101008083540402835291602001916118cf565b820191906000526020600020905b8154815290600101906020018083116118b257829003601f168201915b5050505050612b11565b50505050505050505050565b60606119256040518060400160405280601f81526020017f47657474696e6720616c6c206e616d65732066726f6d20636f6e7472616374008152506129d0565b600061193160086123da565b67ffffffffffffffff811115611970577f4e487b7100000000000000000000000000000000000000000000000000000000600052604160045260246000fd5b6040519080825280602002602001820160405280156119a357816020015b606081526020019060019003908161198e5790505b50905060005b6119b360086123da565b811015611b2d57600e600082815260200190815260200160002080546119d89061449d565b80601f0160208091040260200160405190810160405280929190818152602001828054611a049061449d565b8015611a515780601f10611a2657610100808354040283529160200191611a51565b820191906000526020600020905b815481529060010190602001808311611a3457829003601f168201915b5050505050828281518110611a8f577f4e487b7100000000000000000000000000000000000000000000000000000000600052603260045260246000fd5b6020026020010181905250611b1a6040518060400160405280601781526020017f4e616d6520666f7220746f6b656e20256420697320257300000000000000000081525082848481518110611b0d577f4e487b7100000000000000000000000000000000000000000000000000000000600052603260045260246000fd5b6020026020010151612bb3565b8080611b2590614500565b9150506119a9565b508091505090565b600080611b8584848080601f016020809104026020016040519081016040528093929190818152602001838380828437600081840152601f19601f820116905080830192505050505050506123e8565b905060008111611b9457600080fd5b6003811415611bae57670de0b6b3a7640000915050611bd5565b6004811415611bc8576706f05b59d3b20000915050611bd5565b6702c68af0bb1400009150505b92915050565b611c738282604051602401611bf1929190613e5b565b6040516020818303038152906040527f4b5c4277000000000000000000000000000000000000000000000000000000007bffffffffffffffffffffffffffffffffffffffffffffffffffffffff19166020820180517bffffffffffffffffffffffffffffffffffffffffffffffffffffffff8381831617835250505050612c52565b5050565b60007f01ffc9a7000000000000000000000000000000000000000000000000000000007bffffffffffffffffffffffffffffffffffffffffffffffffffffffff1916827bffffffffffffffffffffffffffffffffffffffffffffffffffffffff1916149050919050565b60008073ffffffffffffffffffffffffffffffffffffffff166002600084815260200190815260200160002060009054906101000a900473ffffffffffffffffffffffffffffffffffffffff1673ffffffffffffffffffffffffffffffffffffffff1614159050919050565b600033905090565b816004600083815260200190815260200160002060006101000a81548173ffffffffffffffffffffffffffffffffffffffff021916908373ffffffffffffffffffffffffffffffffffffffff160217905550808273ffffffffffffffffffffffffffffffffffffffff16611dc883610dc4565b73ffffffffffffffffffffffffffffffffffffffff167f8c5be1e5ebec7d5bd14f71427d1e84f3dd0314c0f7b2291e5b200ac8c7c3b92560405160405180910390a45050565b6000611e1982611ce1565b611e58576040517f08c379a0000000000000000000000000000000000000000000000000000000008152600401611e4f90613ff1565b60405180910390fd5b6000611e6383610dc4565b90508073ffffffffffffffffffffffffffffffffffffffff168473ffffffffffffffffffffffffffffffffffffffff161480611ed257508373ffffffffffffffffffffffffffffffffffffffff16611eba84610801565b73ffffffffffffffffffffffffffffffffffffffff16145b80611ee35750611ee2818561132e565b5b91505092915050565b8273ffffffffffffffffffffffffffffffffffffffff16611f0c82610dc4565b73ffffffffffffffffffffffffffffffffffffffff1614611f62576040517f08c379a0000000000000000000000000000000000000000000000000000000008152600401611f5990613f51565b60405180910390fd5b600073ffffffffffffffffffffffffffffffffffffffff168273ffffffffffffffffffffffffffffffffffffffff161415611fd2576040517f08c379a0000000000000000000000000000000000000000000000000000000008152600401611fc990613f91565b60405180910390fd5b611fdd838383612c7b565b611fe8600082611d55565b6001600360008573ffffffffffffffffffffffffffffffffffffffff1673ffffffffffffffffffffffffffffffffffffffff168152602001908152602001600020600082825461203891906143a1565b925050819055506001600360008473ffffffffffffffffffffffffffffffffffffffff1673ffffffffffffffffffffffffffffffffffffffff168152602001908152602001600020600082825461208f91906142c0565b92505081905550816002600083815260200190815260200160002060006101000a81548173ffffffffffffffffffffffffffffffffffffffff021916908373ffffffffffffffffffffffffffffffffffffffff160217905550808273ffffffffffffffffffffffffffffffffffffffff168473ffffffffffffffffffffffffffffffffffffffff167fddf252ad1be2c89b69c2b068fc378daa952ba7f163c4a11628f55a4df523b3ef60405160405180910390a461214e838383612c80565b505050565b8173ffffffffffffffffffffffffffffffffffffffff168373ffffffffffffffffffffffffffffffffffffffff1614156121c2576040517f08c379a00000000000000000000000000000000000000000000000000000000081526004016121b990613fb1565b60405180910390fd5b80600560008573ffffffffffffffffffffffffffffffffffffffff1673ffffffffffffffffffffffffffffffffffffffff16815260200190815260200160002060008473ffffffffffffffffffffffffffffffffffffffff1673ffffffffffffffffffffffffffffffffffffffff16815260200190815260200160002060006101000a81548160ff0219169083151502179055508173ffffffffffffffffffffffffffffffffffffffff168373ffffffffffffffffffffffffffffffffffffffff167f17307eab39ab6107e8899845ad3d59bd9653f200f220920489ca2b5937696c31836040516122b39190613dc4565b60405180910390a3505050565b6122cb848484611eec565b6122d784848484612c85565b612316576040517f08c379a000000000000000000000000000000000000000000000000000000000815260040161230d90613f31565b60405180910390fd5b50505050565b606060405180602001604052806000815250905090565b606061233e82611ce1565b61237d576040517f08c379a000000000000000000000000000000000000000000000000000000000815260040161237490614111565b60405180910390fd5b600061238761231c565b905060008151116123a757604051806020016040528060008152506123d2565b806123b1846125c3565b6040516020016123c2929190613c37565b6040516020818303038152906040525b915050919050565b600081600001549050919050565b60008060008084519050600092505b808210156125b857600085838151811061243a577f4e487b7100000000000000000000000000000000000000000000000000000000600052603260045260246000fd5b602001015160f81c60f81b9050608060f81b817effffffffffffffffffffffffffffffffffffffffffffffffffffffffffffff191610156124895760018361248291906142c0565b92506125a4565b60e060f81b817effffffffffffffffffffffffffffffffffffffffffffffffffffffffffffff191610156124cb576002836124c491906142c0565b92506125a3565b60f060f81b817effffffffffffffffffffffffffffffffffffffffffffffffffffffffffffff1916101561250d5760038361250691906142c0565b92506125a2565b60f8801b817effffffffffffffffffffffffffffffffffffffffffffffffffffffffffffff1916101561254e5760048361254791906142c0565b92506125a1565b60fc60f81b817effffffffffffffffffffffffffffffffffffffffffffffffffffffffffffff191610156125905760058361258991906142c0565b92506125a0565b60068361259d91906142c0565b92505b5b5b5b5b5082806125b090614500565b9350506123f7565b829350505050919050565b6060600082141561260b576040518060400160405280600181526020017f3000000000000000000000000000000000000000000000000000000000000000815250905061276b565b600082905060005b6000821461263d57808061262690614500565b915050600a826126369190614316565b9150612613565b60008167ffffffffffffffff81111561267f577f4e487b7100000000000000000000000000000000000000000000000000000000600052604160045260246000fd5b6040519080825280601f01601f1916602001820160405280156126b15781602001600182028036833780820191505090505b5090505b60008514612764576001826126ca91906143a1565b9150600a856126d99190614549565b60306126e591906142c0565b60f81b818381518110612721577f4e487b7100000000000000000000000000000000000000000000000000000000600052603260045260246000fd5b60200101907effffffffffffffffffffffffffffffffffffffffffffffffffffffffffffff1916908160001a905350600a8561275d9190614316565b94506126b5565b8093505050505b919050565b61280c8484848460405160240161278a9493929190613e92565b6040516020818303038152906040527f9fd009f5000000000000000000000000000000000000000000000000000000007bffffffffffffffffffffffffffffffffffffffffffffffffffffffff19166020820180517bffffffffffffffffffffffffffffffffffffffffffffffffffffffff8381831617835250505050612c52565b50505050565b6060600082519050600081141561283b57604051806020016040528060008152509150506129cb565b6000600360028361284c91906142c0565b6128569190614316565b60046128629190614347565b9050600060208261287391906142c0565b67ffffffffffffffff8111156128b2577f4e487b7100000000000000000000000000000000000000000000000000000000600052604160045260246000fd5b6040519080825280601f01601f1916602001820160405280156128e45781602001600182028036833780820191505090505b5090506000604051806060016040528060408152602001614d4f604091399050600181016020830160005b868110156129885760038101905062ffffff818a015116603f8160121c168401518060081b905060ff603f83600c1c1686015116810190508060081b905060ff603f8360061c1686015116810190508060081b905060ff603f831686015116810190508060e01b9050808452600484019350505061290f565b5060038606600181146129a257600281146129b2576129bd565b613d3d60f01b60028303526129bd565b603d60f81b60018303525b508484525050819450505050505b919050565b612a66816040516024016129e49190613ddf565b6040516020818303038152906040527f41304fac000000000000000000000000000000000000000000000000000000007bffffffffffffffffffffffffffffffffffffffffffffffffffffffff19166020820180517bffffffffffffffffffffffffffffffffffffffffffffffffffffffff8381831617835250505050612c52565b50565b612a83828260405180602001604052806000815250612e1c565b5050565b612a9082611ce1565b612acf576040517f08c379a0000000000000000000000000000000000000000000000000000000008152600401612ac690614091565b60405180910390fd5b80600660008481526020019081526020016000209080519060200190612af69291906130fa565b505050565b6001816000016000828254019250508190555050565b612bad84848484604051602401612b2b9493929190613e01565b6040516020818303038152906040527f245986f2000000000000000000000000000000000000000000000000000000007bffffffffffffffffffffffffffffffffffffffffffffffffffffffff19166020820180517bffffffffffffffffffffffffffffffffffffffffffffffffffffffff8381831617835250505050612c52565b50505050565b612c4d838383604051602401612bcb93929190613eec565b6040516020818303038152906040527fa3f5c739000000000000000000000000000000000000000000000000000000007bffffffffffffffffffffffffffffffffffffffffffffffffffffffff19166020820180517bffffffffffffffffffffffffffffffffffffffffffffffffffffffff8381831617835250505050612c52565b505050565b60008151905060006a636f6e736f6c652e6c6f679050602083016000808483855afa5050505050565b505050565b505050565b6000612ca68473ffffffffffffffffffffffffffffffffffffffff16612e77565b15612e0f578373ffffffffffffffffffffffffffffffffffffffff1663150b7a02612ccf611d4d565b8786866040518563ffffffff1660e01b8152600401612cf19493929190613d56565b602060405180830381600087803b158015612d0b57600080fd5b505af1925050508015612d3c57506040513d601f19601f82011682018060405250810190612d3991906134f0565b60015b612dbf573d8060008114612d6c576040519150601f19603f3d011682016040523d82523d6000602084013e612d71565b606091505b50600081511415612db7576040517f08c379a0000000000000000000000000000000000000000000000000000000008152600401612dae90613f31565b60405180910390fd5b805181602001fd5b63150b7a0260e01b7bffffffffffffffffffffffffffffffffffffffffffffffffffffffff1916817bffffffffffffffffffffffffffffffffffffffffffffffffffffffff191614915050612e14565b600190505b949350505050565b612e268383612e9a565b612e336000848484612c85565b612e72576040517f08c379a0000000000000000000000000000000000000000000000000000000008152600401612e6990613f31565b60405180910390fd5b505050565b6000808273ffffffffffffffffffffffffffffffffffffffff163b119050919050565b600073ffffffffffffffffffffffffffffffffffffffff168273ffffffffffffffffffffffffffffffffffffffff161415612f0a576040517f08c379a0000000000000000000000000000000000000000000000000000000008152600401612f01906140b1565b60405180910390fd5b612f1381611ce1565b15612f53576040517f08c379a0000000000000000000000000000000000000000000000000000000008152600401612f4a90613f71565b60405180910390fd5b612f5f60008383612c7b565b6001600360008473ffffffffffffffffffffffffffffffffffffffff1673ffffffffffffffffffffffffffffffffffffffff1681526020019081526020016000206000828254612faf91906142c0565b92505081905550816002600083815260200190815260200160002060006101000a81548173ffffffffffffffffffffffffffffffffffffffff021916908373ffffffffffffffffffffffffffffffffffffffff160217905550808273ffffffffffffffffffffffffffffffffffffffff16600073ffffffffffffffffffffffffffffffffffffffff167fddf252ad1be2c89b69c2b068fc378daa952ba7f163c4a11628f55a4df523b3ef60405160405180910390a461307060008383612c80565b5050565b8280546130809061449d565b90600052602060002090601f0160209004810192826130a257600085556130e9565b82601f106130bb57803560ff19168380011785556130e9565b828001600101855582156130e9579182015b828111156130e85782358255916020019190600101906130cd565b5b5090506130f69190613180565b5090565b8280546131069061449d565b90600052602060002090601f016020900481019282613128576000855561316f565b82601f1061314157805160ff191683800117855561316f565b8280016001018555821561316f579182015b8281111561316e578251825591602001919060010190613153565b5b50905061317c9190613180565b5090565b5b80821115613199576000816000905550600101613181565b5090565b60006131b06131ab846141b1565b61418c565b9050828152602081018484840111156131c857600080fd5b6131d384828561445b565b509392505050565b60006131ee6131e9846141e2565b61418c565b90508281526020810184848401111561320657600080fd5b61321184828561445b565b509392505050565b60008135905061322881614c5c565b92915050565b60008135905061323d81614c73565b92915050565b60008135905061325281614c8a565b92915050565b60008151905061326781614c8a565b92915050565b600082601f83011261327e57600080fd5b813561328e84826020860161319d565b91505092915050565b60008083601f8401126132a957600080fd5b8235905067ffffffffffffffff8111156132c257600080fd5b6020830191508360018202830111156132da57600080fd5b9250929050565b600082601f8301126132f257600080fd5b81356133028482602086016131db565b91505092915050565b60008135905061331a81614ca1565b92915050565b60006020828403121561333257600080fd5b600061334084828501613219565b91505092915050565b6000806040838503121561335c57600080fd5b600061336a85828601613219565b925050602061337b85828601613219565b9150509250929050565b60008060006060848603121561339a57600080fd5b60006133a886828701613219565b93505060206133b986828701613219565b92505060406133ca8682870161330b565b9150509250925092565b600080600080608085870312156133ea57600080fd5b60006133f887828801613219565b945050602061340987828801613219565b935050604061341a8782880161330b565b925050606085013567ffffffffffffffff81111561343757600080fd5b6134438782880161326d565b91505092959194509250565b6000806040838503121561346257600080fd5b600061347085828601613219565b92505060206134818582860161322e565b9150509250929050565b6000806040838503121561349e57600080fd5b60006134ac85828601613219565b92505060206134bd8582860161330b565b9150509250929050565b6000602082840312156134d957600080fd5b60006134e784828501613243565b91505092915050565b60006020828403121561350257600080fd5b600061351084828501613258565b91505092915050565b6000806020838503121561352c57600080fd5b600083013567ffffffffffffffff81111561354657600080fd5b61355285828601613297565b92509250509250929050565b6000806000806040858703121561357457600080fd5b600085013567ffffffffffffffff81111561358e57600080fd5b61359a87828801613297565b9450945050602085013567ffffffffffffffff8111156135b957600080fd5b6135c587828801613297565b925092505092959194509250565b6000602082840312156135e557600080fd5b600082013567ffffffffffffffff8111156135ff57600080fd5b61360b848285016132e1565b91505092915050565b60006020828403121561362657600080fd5b60006136348482850161330b565b91505092915050565b60006136498383613751565b905092915050565b61365a816143e7565b82525050565b613669816143d5565b82525050565b600061367a82614238565b6136848185614266565b93508360208202850161369685614213565b8060005b858110156136d257848403895281516136b3858261363d565b94506136be83614259565b925060208a0199505060018101905061369a565b50829750879550505050505092915050565b6136ed816143f9565b82525050565b60006136fe82614243565b6137088185614277565b935061371881856020860161446a565b61372181614636565b840191505092915050565b600061373883856142b5565b935061374583858461445b565b82840190509392505050565b600061375c8261424e565b6137668185614293565b935061377681856020860161446a565b61377f81614636565b840191505092915050565b60006137958261424e565b61379f81856142a4565b93506137af81856020860161446a565b6137b881614636565b840191505092915050565b60006137ce8261424e565b6137d881856142b5565b93506137e881856020860161446a565b80840191505092915050565b600081546138018161449d565b61380b81866142b5565b9450600182166000811461382657600181146138375761386a565b60ff1983168652818601935061386a565b61384085614223565b60005b8381101561386257815481890152600182019150602081019050613843565b838801955050505b50505092915050565b60006138806032836142a4565b915061388b82614647565b604082019050919050565b60006138a36025836142a4565b91506138ae82614696565b604082019050919050565b60006138c6601c836142a4565b91506138d1826146e5565b602082019050919050565b60006138e9605d836142b5565b91506138f48261470e565b605d82019050919050565b600061390c6024836142a4565b915061391782614783565b604082019050919050565b600061392f6019836142a4565b915061393a826147d2565b602082019050919050565b60006139526018836142a4565b915061395d826147fb565b602082019050919050565b6000613975602c836142a4565b915061398082614824565b604082019050919050565b60006139986016836142a4565b91506139a382614873565b602082019050919050565b60006139bb6038836142a4565b91506139c68261489c565b604082019050919050565b60006139de6001836142b5565b91506139e9826148eb565b600182019050919050565b6000613a01602a836142a4565b9150613a0c82614914565b604082019050919050565b6000613a246029836142a4565b9150613a2f82614963565b604082019050919050565b6000613a47602e836142a4565b9150613a52826149b2565b604082019050919050565b6000613a6a6002836142b5565b9150613a7582614a01565b600282019050919050565b6000613a8d6020836142a4565b9150613a9882614a2a565b602082019050919050565b6000613ab06031836142a4565b9150613abb82614a53565b604082019050919050565b6000613ad3602c836142a4565b9150613ade82614aa2565b604082019050919050565b6000613af6602f836142a4565b9150613b0182614af1565b604082019050919050565b6000613b19600a836142b5565b9150613b2482614b40565b600a82019050919050565b6000613b3c6021836142a4565b9150613b4782614b69565b604082019050919050565b6000613b5f601d836142b5565b9150613b6a82614bb8565b601d82019050919050565b6000613b82600c836142b5565b9150613b8d82614be1565b600c82019050919050565b6000613ba5600083614288565b9150613bb082614c0a565b600082019050919050565b6000613bc86031836142a4565b9150613bd382614c0d565b604082019050919050565b613be781614451565b82525050565b6000613bfa82848661372c565b91508190509392505050565b6000613c1382858761372c565b9150613c1e826139d1565b9150613c2a82846137f4565b9150819050949350505050565b6000613c4382856137c3565b9150613c4f82846137c3565b91508190509392505050565b6000613c6782866137f4565b9150613c7382856137c3565b9150613c7f82846137f4565b9150819050949350505050565b6000613c9782613b0c565b9150613ca382866137c3565b9150613cae826138dc565b9150613cba82856137c3565b9150613cc582613b75565b9150613cd182846137c3565b9150613cdc82613a5d565b9150819050949350505050565b6000613cf482613b52565b9150613d0082846137c3565b915081905092915050565b6000613d1682613b98565b9150819050919050565b6000602082019050613d356000830184613660565b92915050565b6000602082019050613d506000830184613651565b92915050565b6000608082019050613d6b6000830187613660565b613d786020830186613660565b613d856040830185613bde565b8181036060830152613d9781846136f3565b905095945050505050565b60006020820190508181036000830152613dbc818461366f565b905092915050565b6000602082019050613dd960008301846136e4565b92915050565b60006020820190508181036000830152613df9818461378a565b905092915050565b60006080820190508181036000830152613e1b818761378a565b9050613e2a6020830186613660565b8181036040830152613e3c818561378a565b90508181036060830152613e50818461378a565b905095945050505050565b60006040820190508181036000830152613e75818561378a565b90508181036020830152613e89818461378a565b90509392505050565b60006080820190508181036000830152613eac818761378a565b90508181036020830152613ec0818661378a565b90508181036040830152613ed4818561378a565b9050613ee36060830184613bde565b95945050505050565b60006060820190508181036000830152613f06818661378a565b9050613f156020830185613bde565b8181036040830152613f27818461378a565b9050949350505050565b60006020820190508181036000830152613f4a81613873565b9050919050565b60006020820190508181036000830152613f6a81613896565b9050919050565b60006020820190508181036000830152613f8a816138b9565b9050919050565b60006020820190508181036000830152613faa816138ff565b9050919050565b60006020820190508181036000830152613fca81613922565b9050919050565b60006020820190508181036000830152613fea81613945565b9050919050565b6000602082019050818103600083015261400a81613968565b9050919050565b6000602082019050818103600083015261402a8161398b565b9050919050565b6000602082019050818103600083015261404a816139ae565b9050919050565b6000602082019050818103600083015261406a816139f4565b9050919050565b6000602082019050818103600083015261408a81613a17565b9050919050565b600060208201905081810360008301526140aa81613a3a565b9050919050565b600060208201905081810360008301526140ca81613a80565b9050919050565b600060208201905081810360008301526140ea81613aa3565b9050919050565b6000602082019050818103600083015261410a81613ac6565b9050919050565b6000602082019050818103600083015261412a81613ae9565b9050919050565b6000602082019050818103600083015261414a81613b2f565b9050919050565b6000602082019050818103600083015261416a81613bbb565b9050919050565b60006020820190506141866000830184613bde565b92915050565b60006141966141a7565b90506141a282826144cf565b919050565b6000604051905090565b600067ffffffffffffffff8211156141cc576141cb614607565b5b6141d582614636565b9050602081019050919050565b600067ffffffffffffffff8211156141fd576141fc614607565b5b61420682614636565b9050602081019050919050565b6000819050602082019050919050565b60008190508160005260206000209050919050565b600081519050919050565b600081519050919050565b600081519050919050565b6000602082019050919050565b600082825260208201905092915050565b600082825260208201905092915050565b600081905092915050565b600082825260208201905092915050565b600082825260208201905092915050565b600081905092915050565b60006142cb82614451565b91506142d683614451565b9250827fffffffffffffffffffffffffffffffffffffffffffffffffffffffffffffffff0382111561430b5761430a61457a565b5b828201905092915050565b600061432182614451565b915061432c83614451565b92508261433c5761433b6145a9565b5b828204905092915050565b600061435282614451565b915061435d83614451565b9250817fffffffffffffffffffffffffffffffffffffffffffffffffffffffffffffffff04831182151516156143965761439561457a565b5b828202905092915050565b60006143ac82614451565b91506143b783614451565b9250828210156143ca576143c961457a565b5b828203905092915050565b60006143e082614431565b9050919050565b60006143f282614431565b9050919050565b60008115159050919050565b60007fffffffff0000000000000000000000000000000000000000000000000000000082169050919050565b600073ffffffffffffffffffffffffffffffffffffffff82169050919050565b6000819050919050565b82818337600083830152505050565b60005b8381101561448857808201518184015260208101905061446d565b83811115614497576000848401525b50505050565b600060028204905060018216806144b557607f821691505b602082108114156144c9576144c86145d8565b5b50919050565b6144d882614636565b810181811067ffffffffffffffff821117156144f7576144f6614607565b5b80604052505050565b600061450b82614451565b91507fffffffffffffffffffffffffffffffffffffffffffffffffffffffffffffffff82141561453e5761453d61457a565b5b600182019050919050565b600061455482614451565b915061455f83614451565b92508261456f5761456e6145a9565b5b828206905092915050565b7f4e487b7100000000000000000000000000000000000000000000000000000000600052601160045260246000fd5b7f4e487b7100000000000000000000000000000000000000000000000000000000600052601260045260246000fd5b7f4e487b7100000000000000000000000000000000000000000000000000000000600052602260045260246000fd5b7f4e487b7100000000000000000000000000000000000000000000000000000000600052604160045260246000fd5b6000601f19601f8301169050919050565b7f4552433732313a207472616e7366657220746f206e6f6e20455243373231526560008201527f63656976657220696d706c656d656e7465720000000000000000000000000000602082015250565b7f4552433732313a207472616e736665722066726f6d20696e636f72726563742060008201527f6f776e6572000000000000000000000000000000000000000000000000000000602082015250565b7f4552433732313a20746f6b656e20616c7265616479206d696e74656400000000600082015250565b7f222c20226465736372697074696f6e223a20224120646f6d61696e206f6e207460008201527f686520556e69746564204e616d652053657276696365222c2022696d6167652260208201527f3a2022646174613a696d6167652f7376672b786d6c3b6261736536342c000000604082015250565b7f4552433732313a207472616e7366657220746f20746865207a65726f2061646460008201527f7265737300000000000000000000000000000000000000000000000000000000602082015250565b7f4552433732313a20617070726f766520746f2063616c6c657200000000000000600082015250565b7f4661696c656420746f207769746864726177204d617469630000000000000000600082015250565b7f4552433732313a206f70657261746f7220717565727920666f72206e6f6e657860008201527f697374656e7420746f6b656e0000000000000000000000000000000000000000602082015250565b7f4e6f7420656e6f756768204d6174696320706169642e00000000000000000000600082015250565b7f4552433732313a20617070726f76652063616c6c6572206973206e6f74206f7760008201527f6e6572206e6f7220617070726f76656420666f7220616c6c0000000000000000602082015250565b7f2e00000000000000000000000000000000000000000000000000000000000000600082015250565b7f4552433732313a2062616c616e636520717565727920666f7220746865207a6560008201527f726f206164647265737300000000000000000000000000000000000000000000602082015250565b7f4552433732313a206f776e657220717565727920666f72206e6f6e657869737460008201527f656e7420746f6b656e0000000000000000000000000000000000000000000000602082015250565b7f45524337323155524953746f726167653a2055524920736574206f66206e6f6e60008201527f6578697374656e7420746f6b656e000000000000000000000000000000000000602082015250565b7f227d000000000000000000000000000000000000000000000000000000000000600082015250565b7f4552433732313a206d696e7420746f20746865207a65726f2061646472657373600082015250565b7f45524337323155524953746f726167653a2055524920717565727920666f722060008201527f6e6f6e6578697374656e7420746f6b656e000000000000000000000000000000602082015250565b7f4552433732313a20617070726f76656420717565727920666f72206e6f6e657860008201527f697374656e7420746f6b656e0000000000000000000000000000000000000000602082015250565b7f4552433732314d657461646174613a2055524920717565727920666f72206e6f60008201527f6e6578697374656e7420746f6b656e0000000000000000000000000000000000602082015250565b7f7b226e616d65223a202200000000000000000000000000000000000000000000600082015250565b7f4552433732313a20617070726f76616c20746f2063757272656e74206f776e6560008201527f7200000000000000000000000000000000000000000000000000000000000000602082015250565b7f646174613a6170706c69636174696f6e2f6a736f6e3b6261736536342c000000600082015250565b7f222c226c656e677468223a220000000000000000000000000000000000000000600082015250565b50565b7f4552433732313a207472616e736665722063616c6c6572206973206e6f74206f60008201527f776e6572206e6f7220617070726f766564000000000000000000000000000000602082015250565b614c65816143d5565b8114614c7057600080fd5b50565b614c7c816143f9565b8114614c8757600080fd5b50565b614c9381614405565b8114614c9e57600080fd5b50565b614caa81614451565b8114614cb557600080fd5b5056fe257320686173207265676973746572656420666f72206120646f6d61696e2025732e25730a2d2d2d2d2d2d2d2d2d2d2d2d2d2d2d2d2d2d2d2d2d2d2d2d2d2d2d2d2d2d2d2d2d2d2d2d2d2d2d2d2d2d2d2d2d2d2d2d2d2d2d2d2d2d2d2d2d2d2d2d2d2d2d2d2d2d2d2d2d2d2d2d2d2d2d2d2d2d2d2d2d2d2d2d2d2d2d2d2d2d2d2d2d2d2d2d2d2d2d2d2d2d2d2d2d2d2d2d2d2d2d2d0a4142434445464748494a4b4c4d4e4f505152535455565758595a6162636465666768696a6b6c6d6e6f707172737475767778797a303132333435363738392b2f5265676973746572696e672025732e2573207769746820746f6b656e4964202564a264697066735822122046c7ec7f252d3c443b412844a60cd08818e3a9d33e67edef16876d300aab488864736f6c634300080400333c73766720786d6c6e733d22687474703a2f2f7777772e77332e6f72672f323030302f737667222077696474683d2232373022206865696768743d22323730222066696c6c3d226e6f6e65223e3c706174682066696c6c3d2275726c282361292220643d224d302030683237307632373048307a222f3e3c646566733e3c66696c7465722069643d22622220636f6c6f722d696e746572706f6c6174696f6e2d66696c746572733d2273524742222066696c746572556e6974733d227573657253706163654f6e55736522206865696768743d22323730222077696474683d22323730223e3c666544726f70536861646f772064783d2230222064793d22312220737464446576696174696f6e3d22322220666c6f6f642d6f7061636974793d222e323235222077696474683d223230302522206865696768743d2232303025222f3e3c2f66696c7465723e3c2f646566733e3c7061746820643d224d37322e3836332034322e39343961342e33383220342e3338322030203020302d342e33393420306c2d31302e30383120362e3033322d362e383520332e3933342d31302e30383120362e30333261342e33383220342e3338322030203020312d342e33393420306c2d382e3031332d342e37323161342e353220342e35322030203020312d312e3538392d312e36313620342e353420342e35342030203020312d2e3630382d322e313837762d392e333161342e323720342e3237203020302031202e3537322d322e32303820342e323520342e323520302030203120312e3632352d312e3539356c372e3838342d342e353961342e33383220342e33383220302030203120332e33393420306c372e38383420342e353961342e353220342e353220302030203120312e35383920312e36313620342e353420342e3534203020302031202e36303820322e31383776362e3033326c362e38352d342e303635762d362e30333261342e323720342e32372030203020302d2e3537322d322e32303820342e323520342e32352030203020302d312e3632352d312e3539354c34312e3435362032342e353961342e33383220342e3338322030203020302d342e33393420306c2d31342e38363420382e36353561342e323520342e32352030203020302d312e36323520312e35393520342e32373320342e3237332030203020302d2e35373220322e3230387631372e34343161342e323720342e3237203020302030202e35373220322e32303820342e323520342e323520302030203020312e36323520312e3539356c31342e38363420382e36353561342e33383220342e33383220302030203020342e33393420306c31302e3038312d352e39303120362e38352d342e3036352031302e3038312d352e39303161342e33383220342e33383220302030203120342e33393420306c372e38383420342e353961342e353220342e353220302030203120312e35383920312e36313620342e353420342e3534203020302031202e36303820322e31383776392e33313161342e323720342e32372030203020312d2e35373220322e32303820342e323520342e32352030203020312d312e36323520312e3539356c2d372e38383420342e37323161342e33383220342e3338322030203020312d342e33393420306c2d372e3838342d342e353961342e353220342e35322030203020312d312e3538392d312e36313620342e353320342e35332030203020312d2e3630382d322e313837762d362e3033326c2d362e383520342e30363576362e30333261342e323720342e3237203020302030202e35373220322e32303820342e323520342e323520302030203020312e36323520312e3539356c31342e38363420382e36353561342e33383220342e33383220302030203020342e33393420306c31342e3836342d382e36353561342e35343520342e35343520302030203020322e3139382d332e3830335635352e35333861342e323720342e32372030203020302d2e3537322d322e32303820342e323520342e32352030203020302d312e3632352d312e3539356c2d31342e3939332d382e3738367a222066696c6c3d2223666666222f3e3c646566733e3c6c696e6561724772616469656e742069643d2261222078313d223930222079313d2231222078323d223432222079323d22343222206772616469656e74556e6974733d227573657253706163654f6e557365223e3c73746f702073746f702d636f6c6f723d2223346334626561222f3e3c73746f70206f66667365743d2231222073746f702d636f6c6f723d2223316164336531222073746f702d6f7061636974793d222e3939222f3e3c2f6c696e6561724772616469656e743e3c2f646566733e3c7465787420783d2233322e352220793d223233312220666f6e742d73697a653d223237222066696c6c3d2223666666222066696c7465723d2275726c282362292220666f6e742d66616d696c793d22506c7573204a616b617274612053616e732c44656a6156752053616e732c4e6f746f20436f6c6f7220456d6f6a692c4170706c6520436f6c6f7220456d6f6a692c73616e732d73657269662220666f6e742d7765696768743d22626f6c64223e",
  "linkReferences": {},
  "deployedLinkReferences": {}
}